S01700005265616C2054696D6520436C6F636B2E73726563CE
S11300000C942A000C9447000C9447000C9447006D
S11300100C9447000C944B060C9447000C94470036
S11300200C9447000C9447000C9447000C94470030
S11300300C9447000C9447000C9447000C94470020
S11300400C9447000C9447000C9447000C94470010
S11300500C94470011241FBECFE5D8E0DEBFCDBF0E
S113006010E0A0E6B0E0EEECFDE002C005900D92D9
S1130070A23BB107D9F710E0A2EBB0E001C01D929A
S1130080A53BB107E1F70E947D040C94E5060C94AE
S11300900000823451F1833420F4813409F07BC0B0
S11300A007C0833409F43EC0843409F074C057C0D7
S11300B0413069F42AB381E090E0AC0102C0440FFE
S11300C0551F6A95E2F7BA01622B6ABB08952AB3F9
S11300D081E090E0AC0102C0440F551F6A95E2F73D
S11300E0BA01609562236ABB0895413069F427B36D
S11300F081E090E0AC0102C0440F551F6A95E2F71D
S1130100BA01622B67BB089527B381E090E0AC018C
S113011002C0440F551F6A95E2F7BA016095622345
S113012067BB0895413069F424B381E090E0AC01E9
S113013002C0440F551F6A95E2F7BA01622B64BBF3
S1130140089524B381E090E0AC0102C0440F551F30
S11301506A95E2F7BA016095622364BB0895413061
S113016069F421B381E090E0AC0102C0440F551F53
S11301706A95E2F7BA01622B61BB089521B381E06D
S113018090E0AC0102C0440F551F6A95E2F7BA0132
S11301906095622361BB0895823451F1833420F465
S11301A0813409F07BC007C0833409F43EC0843431
S11301B009F074C057C0413069F42BB381E090E07A
S11301C0AC0102C0440F551F6A95E2F7BA01622BD5
S11301D06BBB08952BB381E090E0AC0102C0440FE7
S11301E0551F6A95E2F7BA01609562236BBB0895C7
S11301F0413069F428B381E090E0AC0102C0440FBF
S1130200551F6A95E2F7BA01622B68BB089528B3BB
S113021081E090E0AC0102C0440F551F6A95E2F7FB
S1130220BA016095622368BB0895413069F425B32F
S113023081E090E0AC0102C0440F551F6A95E2F7DB
S1130240BA01622B65BB089525B381E090E0AC014F
S113025002C0440F551F6A95E2F7BA016095622304
S113026065BB0895413069F422B381E090E0AC01AC
S113027002C0440F551F6A95E2F7BA01622B62BBB4
S1130280089522B381E090E0AC0102C0440F551FF1
S11302906A95E2F7BA016095622362BB08958234DD
S11302A0F1F0833420F4813409F04FC006C0833464
S11302B041F1843409F049C036C029B381E090E0AB
S11302C0062E02C0880F991F0A94E2F730E08223B9
S11302D0932302C0959587956A95E2F7089526B30E
S11302E081E090E0062E02C0880F991F0A94E2F77D
S11302F030E08223932302C0959587956A95E2F7AF
S1130300089523B381E090E0062E02C0880F991F60
S11303100A94E2F730E08223932302C095958795EF
S11303206A95E2F7089520B381E090E0062E02C0BA
S1130330880F991F0A94E2F730E08223932302C0C6
S1130340959587956A95E2F7089580E0089582343B
S1130350B9F0833418F48134C9F505C08334E9F065
S11303608434A1F527C02BB381E090E0AC0102C036
S1130370440F551F6A95E2F7BA0162276BBB0895D3
S113038028B381E090E0AC0102C0440F551F6A9588
S1130390E2F7BA01622768BB089525B381E090E0D3
S11303A0AC0102C0440F551F6A95E2F7BA016227F7
S11303B065BB089522B381E090E0AC0102C0440F14
S11303C0551F6A95E2F7BA01622762BB0895823429
S11303D061F0833418F4813469F405C0833439F04E
S11303E0843441F406C06ABB089567BB089564BBB6
S11303F0089561BB0895823461F0833418F4813424
S113040069F405C0833439F0843441F406C06BBB0D
S1130410089568BB089565BB089562BB089582344E
S113042061F0833418F4813471F405C0833439F0F5
S1130430843449F406C089B3089586B3089583B318
S1130440089580B3089580E00895823451F183348F
S113045020F4813409F07BC007C0833409F43EC022
S1130460843409F074C057C0413069F42BB381E07F
S113047090E0AC0102C0440F551F6A95E2F7BA013F
S1130480622B6BBB08952BB381E090E0AC0102C0FA
S1130490440F551F6A95E2F7BA01609562236BBB5E
S11304A00895413069F428B381E090E0AC0102C0C2
S11304B0440F551F6A95E2F7BA01622B68BB089591
S11304C028B381E090E0AC0102C0440F551F6A9547
S11304D0E2F7BA016095622368BB0895413069F47C
S11304E025B381E090E0AC0102C0440F551F6A952A
S11304F0E2F7BA01622B65BB089525B381E090E071
S1130500AC0102C0440F551F6A95E2F7BA01609529
S1130510622365BB0895413069F422B381E090E021
S1130520AC0102C0440F551F6A95E2F7BA01622B71
S113053062BB089522B381E090E0AC0102C0440F95
S1130540551F6A95E2F7BA016095622362BB08956C
S11305506F70823481F0833418F48134F1F405C06F
S1130560833479F08434C9F412C08BB3807F8BBB9D
S11305708BB3862B8BBB88B3807F88BB88B3862BD9
S113058088BB85B3807F85BB85B3862B85BB82B34F
S1130590807F82BB82B3682B62BB08956295607FC3
S11305A0823481F0833418F48134F1F405C0833447
S11305B079F08434C9F412C08BB38F708BBB8BB3C6
S11305C0862B8BBB88B38F7088BB88B3862B88BB84
S11305D085B38F7085BB85B3862B85BB82B38F7043
S11305E082BB82B3682B62BB089582E460E041E081
S11305F00E94490082E461E041E00E94490082E4F3
S113060062E041E00E94490082E463E041E00E942C
S1130610490082E464E040E00E94490082E465E02D
S113062040E00E94490082E466E040E00E94490004
S113063082E467E040E00E94490082E464E041E033
S11306400E94250282E465E041E00E94250282E4E2
S113065066E041E00E94250282E467E041E00E94F6
S1130660250208950F931F93CF93DF93CDB7DEB781
S113067060970FB6F894DEBF0FBECDBFDE011196B2
S1130680E0E6F0E080E101900D928150E1F700E0B6
S113069082E460E041E00E94CC0082E461E041E059
S11306A00E94CC0082E462E041E00E94CC0082E43B
S11306B063E041E00E94CC0082E4602F40E00E94AD
S11306C0CC0010E0612F6C5F82E40E944F0188230C
S11306D061F4E02FF0E0EE0FFF1FEE0FFF1FE10FBC
S11306E0F11DEC0FFD1F818104C01F5F143051F711
S11306F00BC060960FB6F894DEBF0FBECDBFDF917E
S1130700CF911F910F9108950F5F043009F68FEF79
S1130710F0CF81E460E041E00E94CC008FE99FE0EB
S11307200197F1F700C0000081E460E040E00E941E
S1130730CC008FE99FE00197F1F700C00000089515
S1130740CF93C82F682F62956F7081E40E94CE0208
S113075081E462E040E00E94CC000E94890381E4CD
S11307606C2F0E94CE0281E462E040E00E94CC0043
S11307700E9489038FEC97E00197F1F700C0000015
S1130780CF9108958FEF92E5A7E081509040A0406B
S1130790E1F700C0000081E464E041E00E94490008
S11307A081E465E041E00E94490081E466E041E0C3
S11307B00E94490081E467E041E00E94490081E42D
S11307C060E041E00E94490081E461E041E00E9470
S11307D0490081E462E041E00E94490081E461E073
S11307E040E00E94CC0082E00E94A003AFE1BEE49E
S11307F01197F1F700C0000088E20E94A0038FEC7B
S113080097E00197F1F700C000008CE00E94A0037C
S1130810AFECB7E01197F1F700C0000081E00E944F
S1130820A0038FE19EE40197F1F700C0000086E089
S11308300E94A003AFECB7E01197F1F700C00000ED
S11308400895CF93C82F682F62956F7081E40E943A
S1130850CE0281E462E041E00E94CC000E94890360
S113086081E46C2F0E94CE0281E462E041E00E94A8
S1130870CC000E9489038FEC97E00197F1F700C048
S11308800000CF910895CF93DF93EC0188818823F2
S113089031F021960E94210489918823D9F7DF91B0
S11308A0CF91089581E00E94A0038FE19EE4019717
S11308B0F1F700C000000895282F2150223070F471
S11308C0613170F4662371F0813019F4962F9158D8
S11308D00AC0823041F4962F915405C090E803C0B9
S11308E090E801C090E8892F0E94A0038FEC97E064
S11308F00197F1F700C0000008950E94C2030E940E
S1130900F50284E40E945C0680E790E00E944304C0
S113091082E061E00E945C048BE790E00E94430463
S11309200E94820683E460E041E00E94490083E47F
S113093061E041E00E94490083E462E041E00E94FA
S1130940490083E463E041E00E94490083E464E0F9
S113095041E00E94490083E465E041E00E944900CF
S1130960DEE3CAE01DE30BE30F2EF7E3FF2EF02DC9
S11309700F2EFFE2EF2EF02D0F2EFFE1DF2EF02DD4
S11309800F2EF5E8AF2EF0E0BF2EF02D0F2EFEE86F
S11309908F2EF0E09F2EF02D0F2EF9E96F2EF0E050
S11309A07F2EF02D0F2EF0E74F2EF0E05F2EF02D6E
S11309B00F2EFBE72F2EF0E03F2EF02D0E94320386
S11309C08093A400D5BB8091B4008C3339F480911A
S11309D0B3008F5F8093B3001092B4008091B40091
S11309E06C2F0E94D90684E4692F0E9460068FE070
S11309F097E20197F1F700C0000015BB8091B400A5
S1130A006C2F0E94D906682F84E40E946006AFE030
S1130A10B7E21197F1F700C0000005BB8091B30065
S1130A206C2F0E94D90684E4692F0E9460068FE02F
S1130A3097E20197F1F700C00000F5BA8091B30086
S1130A406C2F0E94D906682F84E40E946006AFE0F0
S1130A50B7E21197F1F700C00000E5BA8091B20047
S1130A606C2F0E94D90684E4692F0E9460068FE0EF
S1130A7097E20197F1F700C00000D5BA8091B20067
S1130A806C2F0E94D906682F84E40E946006AFE0B0
S1130A90B7E21197F1F700C000008091B3008C33E6
S1130AA039F48091B2008F5F8093B2001092B3004A
S1130AB08091B200883110F01092B2008091A400AD
S1130AC08F3F09F47BCF813309F078CF0E94520421
S1130AD08FEF92E5A7E081509040A040E1F700C07D
S1130AE00000C5010E94430481E067E00E945C04A9
S1130AF00E9432038093A6008F3FD1F38FEF92E5DB
S1130B00A7E081509040A040E1F700C00000809130
S1130B10A6000E9421040E9432038093A5008F3F07
S1130B20D1F38FEF92E5A7E081509040A040E1F728
S1130B3000C000008091A5000E9421048FEF94E67C
S1130B40A4E081509040A040E1F700C000009091E3
S1130B50A50090518091A600880F282F220F220F04
S1130B60820F890F8093B2000E945204C4010E9434
S1130B70430481E069E00E945C040E943203809394
S1130B80A6008F3FD1F38FEF92E5A7E0815090400C
S1130B90A040E1F700C000008091A6000E9421045B
S1130BA00E9432038093A5008F3FD1F38FEF92E52B
S1130BB0A7E081509040A040E1F700C00000809180
S1130BC0A5000E9421048FEF94E6A4E08150904098
S1130BD0A040E1F700C000009091A50090518091E1
S1130BE0A600880F282F220F220F820F890F8093CF
S1130BF0B3000E945204C3010E94430481E069E0EF
S1130C000E945C040E9432038093A6008F3FD1F3BC
S1130C108FEF92E5A7E081509040A040E1F700C03B
S1130C2000008091A6000E9421040E943203809358
S1130C30A5008F3FD1F38FEF92E5A7E0815090405C
S1130C40A040E1F700C000008091A5000E942104AB
S1130C509091A50090518091A600880F282F220F13
S1130C60220F820F890F8093B4008FEF94E6A4E0E3
S1130C7081509040A040E1F700C000000E9452045F
S1130C80C2010E94430482E061E00E945C04C1014D
S1130C900E94430493CE1F920F920FB60F92112419
S1130CA08F938091B4008F5F8093B4008F910F90E5
S1130CB00FBE0F901F9018956FEF0E94E7010895E3
S1130CC0CF93DF93CDB7DEB72A970FB6F894DEBF84
S1130CD00FBECDBFDE011196E7EAF0E09AE0019085
S1130CE00D929150E1F7FE01E60FF11D61810E9422
S1130CF0FB012A960FB6F894DEBF0FBECDBFDF917D
S1130D00CF91089582B5886082BD85B5816085BD27
S1130D1085B5846085BD789489B7806489BF08955A
S1130D2083B7886083BF80E58CBF83B7816083BF4E
S1130D3083B7846083BF789489B7826089BF08953C
S1130D40BB9A83B7886083BF80E48CBF83B781601C
S1130D5083BF83B7846083BF83B7806183BF0895F3
S1130D60BB9A83B7806483BF83B7886083BF80E402
S1130D708CBF83B7816083BF83B7846083BF83B72D
S1130D80806183BF83B7806283BF0895BB9A83B7B2
S1130D90806483BF80E48CBF83B7816083BF83B7E3
S1130DA0846083BF83B7806183BF83B7806283BF5E
S1130DB00895991B79E004C0991F961708F0961BB3
S1110DC0881F7A95C9F780950895F894FFCF9F
S1130DCE3738392F3435362A3132332D41303D2BD5
S1130DDE5072657373203120746F007365742074C0
S1130DEE696D653A00686F7572733A2D2D006D69E1
S1130DFE6E757465733A2D2D007365636F6E64732F
S1130E0E3A2D2D00FFFFFF3F065B4F666D7D077F7A
S1050E1E6F005F
S9030000FC
